:03000000020003F8
:0C000300787FE4F6D8FD75811902004AF0
:10011E0012083F065B4F666D7D077F6F777C395EF9
:04012E0079710040A3
:10010900EF1FAC0670011E4C70F6EF1FAC067001B4
:050119001E4C70F622EF
:0E015600EFC43354E0FFE5A0541F4FF5A02284
:0E0133007F0612014174082CF8E6F4FD7F07E8
:060141001201568D802220
:07016400E4FD7F05020141EB
:1000E700AE05AC07EEC394075012EE5407FF740138
:1000F700A807088002C333D8FCFD8002AD061201B1
:020107003322A1
:1000C200AE03AC05EF24FE6016047018EE1454075C
:1000D200FF7401A807088002C333D8FCFD8002AD7B
:0500E2000612013322AB
:10008F007901E4FAAD02AB017F011200C27FC07E9D
:10009F00D41201090ABA0AEC09B909E6E4FAAD0269
:1000AF007BFF7F021200C27F007E531201090ABA42
:0200BF0010EC43
:0100C100221C
:0F0147001201647F607EEA12010912008F80FBB3
:10000F00020147E493A3F8E493A34003F68001F2BF
:10001F0008DFF48029E493A3F85407240CC8C333F2
:10002F00C4540F4420C8834004F456800146F6DFC1
:10003F00E4800B010204081020408090011EE47E32
:10004F00019360BCA3FF543F30E509541FFEE493B6
:10005F00A360010ECF54C025E060A840B8E493A37D
:10006F00FAE493A3F8E493A3C8C582C8CAC583CAA8
:10007F00F0A3C8C582C8CAC583CADFE9DEE780BE60
:0101320000CC
:00000001FF
