:03000000020003F8
:0C000300787FE4F6D8FD75811B02004AEE
:1001400012093F065B4F666D7D077F6F777C395ED6
:040150007971004081
:0C0129007D110B7F011200CC7FF47E01E1
:0B013500EF1FAC0670011E4C70F6229C
:0E015500EFC43354E0FFE5A0541F4FF5A02285
:06016A001201558D8022F8
:07016300E4FD7F0502016AC3
:1000CC00AE03AC05EF24FE6016047026EE14540744
:1000DC00FF7401A807088002C333D8FCFD8002AD71
:1000EC00067F0612016A74092CF8E6F4FD7F0712EC
:0300FC00016A2274
:10008F007B017D0212012C0BE4FD12012C7D01126C
:10009F00012B0B7D0812012C120129120129E508F1
:1000AF0075F00A84FD12012BE50875F00A84ADF096
:0D00BF000B7F011200CC7FF47E01020135A1
:0D00FF0012016375080C7F607EEA12013566
:10010C00E4F51B12008F051BE51BC3946440F4053A
:0B011C0008E508D3940C40E8750801CA
:0201270080E373
:10000F000200FFE493A3F8E493A34003F68001F208
:10001F0008DFF48029E493A3F85407240CC8C333F2
:10002F00C4540F4420C8834004F456800146F6DFC1
:10003F00E4800B0102040810204080900140E47E10
:10004F00019360BCA3FF543F30E509541FFEE493B6
:10005F00A360010ECF54C025E060A840B8E493A37D
:10006F00FAE493A3F8E493A3C8C582C8CAC583CAA8
:10007F00F0A3C8C582C8CAC583CADFE9DEE780BE60
:0101540000AA
:00000001FF
