:030000000200D526
:0C00D500787FE4F6D8FD7581070200B1C9
:0B00E100EF1FAC0670011E4C70F622F1
:0E00C700EFC43354E0FFE5A0541F4FF5A02214
:0600F3001200C78D8022FF
:0700EC00E4FD7F050200F3B3
:10006800EF24FE600504701D8016EDC39409501539
:10007800ED14FF7401A807088002C333D8FCF4FD0F
:050088007F041200F3EB
:01008D002250
:10008E00E4FF20B00530B0FD7F0720B10530B1FD93
:10009E007F0620B20530B2FD7F0520B30530B3FDDB
:0200AE007F04CD
:0100B000222D
:10000300E4FE12008EBF0704EE70010E12008EBFD5
:100013000605EE70027E02EE14600E1460292402BF
:1000230070427DFF7F010200687D017F021200683C
:1000330012008EBF0502B28212008EBF0402B28389
:1000430012008EEF6407227D027F02120068120005
:100053008EBF0502B28412008EBF0402B285120065
:040063008EBF060046
:010067002276
:1000B1001200EC7F607EEA1200E17DFF7F011200F9
:0600C1006812000380FB41
:00000001FF
