:030000000200B843
:0C00B800787FE4F6D8FD75810802008511
:04009B007F647E0000
:0B009F00EF1FAC0670011E4C70F62233
:0E00AA00EFC43354E0FFE5A0541F4FF5A02231
:0600CB001200AA8D802244
:0700C400E4FD7F050200CB03
:1000030020B01B12009B20B015E5087007C2807555
:100013000801800AE508B40105D280E4F50820B19F
:100023001B12009B20B115E5087007C281750802F9
:10003300800AE508B40205D281E4F50820B2201253
:10004300009B20B21AE508B40109C28230B2FDD286
:1000530082800CE508B40207C28430B2FDD284204A
:10006300B31F12009B20B319E508B40108C2833003
:10007300B3FDD28322E508B40207C28530B3FDD2B3
:020083008522D4
:100085001200C47F607EEA12009F7DFF7F0412008C
:06009500CB12000380FB0A
:00000001FF
