:0300000002000EED
:0C000E00787FE4F6D8FD758108020055EB
:03010D00010800E6
:0B00FC00EF1FAC0670011E4C70F622D6
:0E00EE00EFC43354E0FFE5A0541F4FF5A022ED
:060107001200EE8D8022C3
:07000300E4FD7F0502010787
:1000DB005389F0438901758C3C758AAFD2A9D2AF95
:0300EB00D28C2292
:03000B0002009A56
:06009A00C0E0C0F0C0D080
:1000A000758C3C758AAF0508E50875F00A84E5F0A3
:0E00B0007002B280E508B46405B287750800DE
:0700BE00D0D0D0F0D0E032F9
:1000C5001200031200DB7F607EEA1200FC7DFF7FD9
:0600D5000412010780FE89
:10001A000200C5E493A3F8E493A34003F68001F237
:10002A0008DFF48029E493A3F85407240CC8C333E7
:10003A00C4540F4420C8834004F456800146F6DFB6
:10004A00E4800B010204081020408090010DE47E38
:10005A00019360BCA3FF543F30E509541FFEE493AB
:10006A00A360010ECF54C025E060A840B8E493A372
:10007A00FAE493A3F8E493A3C8C582C8CAC583CA9D
:10008A00F0A3C8C582C8CAC583CADFE9DEE780BE55
:0101100000EE
:00000001FF
