:030000000201D624
:0C01D600787FE4F6D8FD75811A02021D46
:100397000108FF1209C0F9A4B0999282F8809088E9
:0703A70083C6A1868EBFFF93
:0A03C700FD7F071203FF7FF47E01A3
:0B03D100EF1FAC0670011E4C70F622FE
:06042A0000007F21DFFE4F
:0104300022A9
:1003FF00EFC43354E0FFE5A0541F4FF5A08D8022CA
:0602F80075F00A84ADF070
:1002FE00AE057401A807088002C333D8FCFD7F0643
:10030E001203FF74092EF8E61203C77DFF7F070262
:02031E0003FFDB
:10032000AE057401A807088002C333D8FCFD7F0620
:100330001203FF74092EF8E624801203C77DFF7FA5
:04034000070203FFAE
:1003EE00E4FED29012042AC29012042A0EBE08F223
:0103FE0022DC
:1002620053890FE4F58BF58D1203EED28E30910394
:10027200308FFAC28E208F1CAF8DEFFEAD8BEDFF5B
:10028200AC06E412010E7B967A43798B783C12001D
:0802920003020147C28F7F0047
:01029A002241
:10036100E4FDFF1203FF7F051203FF7DFF7F0412EF
:0C03710003FF7F061203FF7F070203FF5B
:10029B001203617F107E271203D1120262AB07EBB0
:1002AB0075F0648475F00A84ADF0E4FF1202FEEB86
:1002BB0075F00A847F011202F8EB7F021202F880BC
:0102CB00D959
:04037D00D2A07F0A81
:10038100000000000000000000000000000000AEBE
:06039100071FEE70EB22D5
:0F040F00D2A112037DC2A17F0A120381C2A022D3
:0C041E00C2A112037DD2A17F0A0203815B
:0202CC00AD077C
:1002CE00E4FCC2A07F0A120381ED30E704D2A180C4
:1002DE0002C2A17F0A120381D2A0ED25E0FD7F0AA2
:0902EE001203810CBC08DBC2A064
:0102F70022E4
:10034400E4FC12037DED25E0FD30A103430501C269
:0C035400A07F0A1203810CBC08E8AF0572
:01036000227A
:1003DC0012037DA2A1E433FDC2A07F0A120381AFF8
:0103EC00050B
:0103ED0022ED
:1003AF00C2A0EF24FF92A17F0A12038112037DC224
:0803BF00A0D2A17F0A02038114
:10000300EC4D6011E8497017ED33EC3304600DE4F7
:10001300FCFFFEFD22E933E8330470F80201B3125A
:10002300017E58046009E4CC24815006285009025B
:1000330001BD2840030201BAC0E0EB4A7044B98015
:1000430006D0E0FB0201A9EF4E701CBD8008EBFF58
:10005300EAFEE9FD80EBE98DF0A4FEE5F00200EC99
:10006300E9CDF9EAFEEBFFEF89F0A4FCE5F0CE89D8
:10007300F0A42EFFE435F0CD89F0A42DFEE435F095
:100083008067EF4E7005BD80D780C3EF8BF0A4ACC3
:10009300F0EE8BF0A42CFCE435F0F8EF8AF0A42CFE
:1000A300E5F038FCE433CB8DF0A42CFCE5F03BF811
:1000B300EE8AF0A42CFCE5F038F8E433CF89F0A401
:1000C3002CFCE5F038CF3400CE89F0A42FFFE5F007
:1000D3003EFEE433C98DF0A42EFEE5F039CD8AF05F
:1000E300A42FFFE5F03EFEE43DFD33D0E0FB5007D7
:1000F3000BBB000F0201BDEC2CFCEF33FFEE33FE14
:06010300ED33FD02019541
:1001090075F020800E75F010800575F0087D007E71
:10011900007F003392D530D5031201C8EC3340106B
:10012900EF33FFEE33FEED33FDEC33FCD5F0ED227A
:0E013900E5F0247EA2D513CC92E7CDCEFF22B6
:10014700EDD2E7CD33EC3392D524814006E4FFFEB0
:10015700FDFC22FCE4CFCECDCC24E0501174FF800F
:10016700EDC3CC13CCCD13CDCE13CECF13CF0470AC
:07017700F030D5DE0201C8E3
:10017E00E9D2E7C933E833F892D5EDD2E7CD33ECC7
:07018E0033FC5002B2D52240
:10019500EC30E7100FBF000C0EBE00080DBD0004CB
:1001A5000BEB6014A2D5EB13FCED92E7FD2274FF77
:1001B500FCFDFEFF22E480F8A2D574FF13FC7D80D0
:0301C500E480EFE4
:1001E20002029BE493A3F8E493A34003F68001F296
:1001F20008DFF48029E493A3F85407240CC8C3331E
:10020200C4540F4420C8834004F456800146F6DFEC
:10021200E4800B0102040810204080900397E47EE2
:10022200019360BCA3FF543F30E509541FFEE493E1
:10023200A360010ECF54C025E060A840B8E493A3A8
:10024200FAE493A3F8E493A3C8C582C8CAC583CAD3
:10025200F0A3C8C582C8CAC583CADFE9DEE780BE8B
:0103AE00004E
:0E01C800C3E49FFFE49EFEE49DFDE49CFC2248
:00000001FF
