:03000000020003F8
:0C000300787FE4F6D8FD75813702004AD2
:10036E000110FF1211C0F9A4B0999282F880908802
:07037E0083C6A1868EBFFFBC
:0A039E00FD7F071203C57FF47E0106
:0B03A800EF1FAC0670011E4C70F62227
:1003C500EFC43354E0FFE5A0541F4FF5A08D802204
:0502AE0075F00A84FD5B
:1002B300AE057401A807088002C333D8FCFD7F068E
:1002C3001203C574112EF8E612039E7DFF7F070209
:0202D30003C561
:1002D500AE057401A807088002C333D8FCFD7F066C
:1002E5001203C574112EF8E6248012039E7DFF7F4C
:0402F500070203C534
:0801DE008B298A2A892B8D2C44
:1001E6001203D57F9012025A1203B37F4412025AA9
:1001F6001203B3E4F52DE52DC3952C501AAB29AAAD
:100206002AA92B852D8275830012018FFF12025AAF
:0A0216001203B3052D80DF0203E49C
:1002F9008F281203D57F9012025A1203B3E52844BE
:1003090040FF12025A1203B31203E47F0A7E00026D
:0203190003A837
:100286001202F91203D57F9112025A1203B3120316
:100296001B8F27E4FF12038612031B8F277F011291
:0702A60003861203E4AF27F9
:0102AD00222E
:080220008B2E8A2F89308D31ED
:10022800E4F532E532C395315027E532C3940450E2
:1002380020AF32120286AB2EAA2FA93085328275E2
:100248008300EF1201BC7F057E001203A8053280EF
:01025800D2D3
:010259002282
:08008F008B338A3489358D366C
:100097001203D57F9112025A1203B3E4F537E536FE
:1000A70014FFE537C39F501C12031BAB33AA34A9B7
:1000B70035853782758300EF1201BCE4FF12038692
:1000C700053780DA12031BE5367C0024FFF582EC46
:1000D70034FFF583AB33AA34A935EF1201BC7F0196
:0600E7001203860203E48F
:10014000E50875F00A84FDE4FF1202B3E50875F0D6
:100150000A84ADF07F011202B37D107F021202B358
:10016000E5097F031202AEE50975F00A84ADF07F60
:10017000041202B37D107F051202B3E50A7F061256
:0F01800002AEE50A75F00A84ADF07F070202B304
:10033800E4FDFF1203C57F051203C57DFF7F04128C
:0C03480003C57F061203C57F070203C532
:1000ED001203387F647E001203A87F021202868FEE
:1000FD00237D0AE4FF1202B3E4FD7F011202B37DFA
:10010D00117F021202B3E52375F06484FD7F0312A3
:10011D0002B3E52375F06484E5F075F00A84FD7F84
:10012D00041202B3E52375F00A84ADF07F051202C7
:03013D00B380B7D5
:04035400D2A07F0AAA
:10035800000000000000000000000000000000AEE7
:06036800071FEE70EB22FE
:0F03D500D2A1120354C2A17F0A120358C2A02260
:0C03E400C2A1120354D2A17F0A020358E8
:02025A00AD07EE
:10025C00E4FCC2A07F0A120358ED30E704D2A1805F
:10026C0002C2A17F0A120358D2A0ED25E0FD7F0A3D
:09027C001203580CBC08DBC2A0FF
:010285002256
:10031B00E4FC120354ED25E0FD30A103430501C2BB
:0C032B00A07F0A1203580CBC08E8AF05C4
:0103370022A3
:1003B300120354A2A1E433FDC2A07F0A120358AF73
:0103C3000534
:0103C4002216
:10038600C2A0EF24FF92A17F0A120358120354C29F
:08039600A0D2A17F0A02035866
:10000F000200EDE493A3F8E493A34003F68001F21A
:10001F0008DFF48029E493A3F85407240CC8C333F2
:10002F00C4540F4420C8834004F456800146F6DFC1
:10003F00E4800B010204081020408090036EE47EE0
:10004F00019360BCA3FF543F30E509541FFEE493B6
:10005F00A360010ECF54C025E060A840B8E493A37D
:10006F00FAE493A3F8E493A3C8C582C8CAC583CAA8
:10007F00F0A3C8C582C8CAC583CADFE9DEE780BE60
:010385000077
:10018F00BB010CE58229F582E5833AF583E0225025
:10019F0006E92582F8E622BBFE06E92582F8E2226F
:0D01AF00E58229F582E5833AF583E4932289
:1001BC00F8BB010DE58229F582E5833AF583E8F079
:1001CC00225006E92582C8F622BBFE05E92582C825
:0201DC00F2220D
:00000001FF
