:03000000020003F8
:0C000300787FE4F6D8FD75812002004AE9
:100277000108FF1209C0F9A4B0999282F88090880A
:0702870083C6A1868EBFFFB4
:0A02A700FD7F071202CE7FF47E01F6
:0B02B100EF1FAC0670011E4C70F6221F
:1002CE00EFC43354E0FFE5A0541F4FF5A08D8022FC
:0A013E0075F00A8475F00A84ADF034
:10014800AE057401A807088002C333D8FCFD7F06FA
:100158001202CE74092EF8E61202A77DFF7F07026D
:0201680002CEC5
:1001BE00AE057401A807088002C333D8FCFD7F0684
:1001CE001202CE74092EF8E624801202A77DFF7F5C
:0401DE00070202CE44
:100204008F1D1202DE7F9012016A1202BC7F41121E
:10021400016A1202BCAF1D12016A1202BC0202ED95
:020101008F1D50
:100103001202DE7F9012016A1202BCE51D4440FF19
:1001130012016A1202BC1202DE7F9112016A1202FC
:10012300BC1202248F1EE4FF12028F1202248F1EC0
:0A0133007F0112028F1202EDAF1ED1
:01013D00229F
:1001E2008F1F1202DE7F9012016A1202BCE51F44C9
:1001F20040FF12016A1202BC1202ED7F0A7E000267
:0202020002B147
:100196001201E21202DE7F9112016A1202BC120201
:1001A600248F20E4FF12028F1202248F207F011277
:0701B600028F1202EDAF20E1
:0101BD00221F
:10024100E4FDFF1202CE7F051202CE7DFF7F041274
:0C02510002CE7F061202CE7F070202CE12
:10008F00E4F51BF51C1202417F107E271202B17F8F
:10009F00411201018F1B7F647E001202B17F431258
:1000AF0001018F1C7F647E001202B1E51B75F064A5
:1000BF0084FDE4FF120148E51B7F0112013EE51BA1
:1000CF0075F00A84ADF07F02120148E51C75F064EB
:1000DF0084FD7F04120148E51C7F0512013EE51CDB
:1000EF0075F00A84ADF07F061201487FFF120204FB
:0200FF00809DE2
:04025D00D2A07F0AA2
:10026100000000000000000000000000000000AEDF
:06027100071FEE70EB22F6
:0F02DE00D2A112025DC2A17F0A120261C2A02248
:0C02ED00C2A112025DD2A17F0A020261D0
:02016A00AD07DF
:10016C00E4FCC2A07F0A120261ED30E704D2A18048
:10017C0002C2A17F0A120261D2A0ED25E0FD7F0A26
:09018C001202610CBC08DBC2A0E8
:010195002247
:10022400E4FC12025DED25E0FD30A103430501C2AB
:0C023400A07F0A1202610CBC08E8AF05B4
:01024000229B
:1002BC0012025DA2A1E433FDC2A07F0A120261AF5B
:0102CC00052C
:0102CD00220E
:10028F00C2A0EF24FF92A17F0A12026112025DC287
:08029F00A0D2A17F0A02026156
:10000F0002008FE493A3F8E493A34003F68001F278
:10001F0008DFF48029E493A3F85407240CC8C333F2
:10002F00C4540F4420C8834004F456800146F6DFC1
:10003F00E4800B0102040810204080900277E47ED8
:10004F00019360BCA3FF543F30E509541FFEE493B6
:10005F00A360010ECF54C025E060A840B8E493A37D
:10006F00FAE493A3F8E493A3C8C582C8CAC583CAA8
:10007F00F0A3C8C582C8CAC583CADFE9DEE780BE60
:01028E00006F
:00000001FF
