:0300000002006992
:0C006900787FE4F6D8FD758108020003E2
:0B007500EF1FAC0670011E4C70F6225D
:0E005B00EFC43354E0FFE5A0541F4FF5A02280
:06008F0012005B8D8022CF
:07008800E4FD7F0502008F7B
:10004500758920758DFD758BFDD28E759850E4F5FB
:060055008ED2ACD2AF22F6
:080080008F993099FDD29922FD
:03002300020026B2
:10002600C0E0C0D075D000C00730980CC298859942
:0F00360008E50804FF120080D007D0D0D0E032D8
:100003001200887F607EEA1200757DFF7F04120074
:100013008F1200457F5A1200807FA512008080FE58
:00000001FF
