:0300000002009269
:0C009200787FE4F6D8FD7581090200D9E2
:0301890001090069
:04015F007F647E003B
:0B016300EF1FAC0670011E4C70F6226E
:0E016E00EFC43354E0FFE5A0541F4FF5A0226C
:0601830012016E8D8022C6
:10011E00EF24FE600504701D8016EDC39409501582
:10012E00ED14FF7401A807088002C333D8FCF4FD58
:05013E007F04120183A3
:010143002299
:07017C00E4FD7F0502018391
:1000030020B01E12015F20B018E5087007C280758A
:100013000801800AE508B40105D280E4F50830B090
:10002300FD20B11E12015F20B118E5087007C281DF
:10003300750802800AE508B40205D281E4F50830A8
:10004300B1FD20B22312015F20B21DE508B40109FE
:10005300C28230B2FDD282800CE508B40207C284AA
:1000630030B2FDD28430B2FD20B32312015F20B33E
:100073001DE508B40109C28330B3FDD283800CE5CA
:0F00830008B40207C28530B3FDD28530B3FD2229
:1001440012017C7F607EEA1201637DFF7F01120150
:0B0154001E7F0412016E12000380FBEE
:10009E00020144E493A3F8E493A34003F68001F233
:1000AE0008DFF48029E493A3F85407240CC8C33363
:1000BE00C4540F4420C8834004F456800146F6DF32
:1000CE00E4800B0102040810204080900189E47E38
:1000DE00019360BCA3FF543F30E509541FFEE49327
:1000EE00A360010ECF54C025E060A840B8E493A3EE
:1000FE00FAE493A3F8E493A3C8C582C8CAC583CA19
:10010E00F0A3C8C582C8CAC583CADFE9DEE780BED0
:01018C000072
:00000001FF
