:0300000002009467
:0C009400787FE4F6D8FD7581070200714A
:0B0033007F607EEA12003E7F607EEAE4
:10003E00EF1FAC0670011E4C70F6EF1FAC06700180
:05004E001E4C70F622BB
:0E008600EFC43354E0FFE5A0541F4FF5A02255
:0600A7001200868D80228C
:0700A000E4FD7F050200A74B
:100053007F041200867580F012003375800F120042
:0E006300337580FF12003A7F607EEA02003E95
:10000300E4FD7F061200867401A805088002C3334D
:10001300D8FCF5807F07120086E4F5801200330DCB
:10002300BD08DF7580FF12003A7F607EEA02003E62
:100071001200A012003A7DFF7F041200A712005364
:0500810012000380F8ED
:00000001FF
