:0300000002009C5F
:0C009C00787FE4F6D8FD7581090200A809
:100069007F041200BA7F607EEA1200797F607EEA1F
:10007900EF1FAC0670011E4C70F6EF1FAC06700145
:050089001E4C70F62280
:0E008E00EFC43354E0FFE5A0541F4FF5A0224D
:0600BA0012008E8D802271
:10000300E4FBE4FD1200697DFF1200690BBB03F200
:100013007B0174FFA803088002C333D8FCFD7F046F
:100023001200BA1200750BBB09E87D107F051200A0
:100033006BE4FD7F051200BA7F0412008E7B01740E
:10004300FFA803088002C333D8FCF4FD7F04120029
:10005300BA1200750BBB09E77D407F0512006BE404
:06006300FD7F050200BA5A
:0700B300E4FD7F050200BA25
:0B00A8001200B312007512000380FB71
:00000001FF
