:0300000002000EED
:0C000E00787FE4F6D8FD758110020055E3
:09013500040C00193264010800F9
:0B012A00EF1FAC0670011E4C70F622A7
:0E011C00EFC43354E0FFE5A0541F4FF5A022BE
:06013F0012011C8D80225C
:07000300E4FD7F0502013F4F
:100109005389F0438901758CFF758A9BD2A9D2AFB7
:03011900D28C2263
:03000B000200C828
:0400C800C0E0C0D004
:1000CC00758CFF758A9B0508E508D3950B5004C207
:0F00DC00808002D280E508C39464400375080059
:0500EB00D0D0D0E0328E
:10009A0020B02A7F647E0012012A20B019E50904E3
:1000AA005403F509240CF8E6F50B20B0097F0A7E03
:0D00BA000012012A80F47F647E0012012AEA
:0100C7002216
:1000F0001200031201097F607EEA12012A7DFF7F50
:090100000412013F12009A80FB79
:10001A000200F0E493A3F8E493A34003F68001F20C
:10002A0008DFF48029E493A3F85407240CC8C333E7
:10003A00C4540F4420C8834004F456800146F6DFB6
:10004A00E4800B0102040810204080900135E47E10
:10005A00019360BCA3FF543F30E509541FFEE493AB
:10006A00A360010ECF54C025E060A840B8E493A372
:10007A00FAE493A3F8E493A3C8C582C8CAC583CA9D
:10008A00F0A3C8C582C8CAC583CADFE9DEE780BE55
:01013E0000C0
:00000001FF
