:0300000002000EED
:0C000E00787FE4F6D8FD75811E020055D5
:1001BF00120D3F065B4F666D7D077F6F777C395E53
:0701CF0079710040010800F6
:0B020C00EF1FAC0670011E4C70F622C4
:0E01FE00EFC43354E0FFE5A0541F4FF5A022DC
:0E01D7007F061201E5740D2BF8E6F4FD7F079C
:0601E5001201FE8D8022D4
:07021700E4FD7F050201E593
:07012F0075F00A84FB7F015B
:10013600AE05EF24FE601C04701EEE14FF7401A8C9
:1001460007088002C333D8FCFD1201D77FF47E0175
:0901560002020CAD061201D722D1
:1001EB005389F0438901758C3C758AAFD2A9D2AF84
:0301FB00D28C2281
:08000300E4F50CF50AF50B22EF
:10009A00E50B7D0112012FE50B75F00A84ABF07DAB
:1000AA00027F011201367B117D037F01120136E5C1
:1000BA000A7D0412012FE50A75F00A84ABF07D056A
:1000CA007F011201367B117D067F01120136E50C94
:1000DA0075F00A84FB7D077F01120136E50C75F085
:0B00EA000A84ABF07D087F01020136A4
:1000F50020B31E7F647E0012020C20B314E5097044
:10010500047F0180027F008F0920B30512009A80C9
:10011500F820B2157F647E0012020C20B20B12008B
:0A0125000320B20512009A80F822B0
:10015F00E509B4011CE50CB41405E4F50C050AE53A
:10016F000AB43C05E4F50A050BE50BB46303E4F5AB
:02017F000B2251
:100181001202171201EB7F607EEA12020C7DFF7FE3
:0F019100041201E5E4F50912009A1200F580F856
:03000B000201A04F
:0401A000C0E0C0D02B
:1001A400758C3C758AAF0508E509B40106E508605D
:0601B40002050C12015FC0
:0501BA00D0D0D0E032BE
:10001A00020181E493A3F8E493A34003F68001F27A
:10002A0008DFF48029E493A3F85407240CC8C333E7
:10003A00C4540F4420C8834004F456800146F6DFB6
:10004A00E4800B01020408102040809001BFE47E86
:10005A00019360BCA3FF543F30E509541FFEE493AB
:10006A00A360010ECF54C025E060A840B8E493A372
:10007A00FAE493A3F8E493A3C8C582C8CAC583CA9D
:10008A00F0A3C8C582C8CAC583CADFE9DEE780BE55
:0101D6000028
:00000001FF
