:0300000002026198
:0C026100787FE4F6D8FD7581200202A829
:1004AF00C0F9A4B0999282F880908880C6C0868ED9
:0C04BF00BF7F4079243019120278001031
:0A055800040800000000020C00007F
:0B054200EF1FAC0670011E4C70F6228B
:1003EA008D80EF603624FB601414601B1460222495
:1003FA0003702BE5A0541F4480F5A08021E5A0548A
:10040A001F44A0F5A08017E5A0541F44C0F5A080A2
:10041A000DE5A0541F44E0F5A0800353A01F53A08C
:02042A001F228F
:03042C00E493FD59
:10042F00AB07AE057401A803088002C333D8FCFDE7
:10043F007F061203EAAD060F1203EA7FF47E011264
:10044F000542AF037401A807088002C333D8FCFD2F
:0B045F007F061203EA7DFF0F0203EA94
:0F053300AE077DFF7F061203EAAD060F0203EA53
:1002ED00D3E50D94E7E50C64809483401AAE0CAF12
:1002FD000D7C037DE81201C874AF2FF58274043EA6
:10030D00F5837F0412042CAE0CAF0D7C007D6412BE
:10031D0001C87C007D0A1201C874C12DF5827404D8
:10032D003CF5837F0512042CAE0CAF0D7C007D0ACD
:10033D001201C87C007D0A1201C874AF2DF58274BC
:10034D00043CF583E493FD7F0612042FAE0CAF0D34
:10035D007C007D0A1201C874AF2DF58274043CF542
:09036D0083E493FD7F0702042FD5
:1004CB0012046A7FCC1204917F44120491E4FD7FE5
:0A04DB00607EEA1205420DBD08F52F
:0104E50022F4
:10037600E4FFFE12046A1202ED7FCC1204917F4460
:100386001204911202ED12046A1202ED7FCC1204DD
:10039600917FBE1204911205008F0E120500AA0766
:1003A6001202EDAF02EFFEE50EFFEE54F87019AD46
:1003B60007AC0612010EE4FBFA7980783D120003C1
:1003C6008F0B8E0A8D098C08E4FFFE7DC87C42AB3C
:1003D6000BAA0AA909A8081200031201478E0C8F5E
:0403E6000D0202ED15
:10051A00E4FDFF1203EA7F051203EA7DFF1F1203BF
:09052A00EA7FFF1205330204CB45
:0B054D0012051A1203761202ED80F86E
:0404E6007F057E0010
:1004EA00EF1FAA0670011E4A600BE4FDEDC3940CCF
:0504FA0050EE0D80F73B
:0104FF0022DA
:02049100A907B9
:10049300E4FBC294E91392941204E6D294E9C313E1
:0C04A300F90BBB08ED7F057E000204EAA7
:10050000E4FBC294ECC313FCD29430940343048004
:090510001204E60BBB08EBAF047A
:0105190022BF
:10046A00C200D2947F0C7E001204EAC2947F507EAE
:10047A00001204EAD2947F0A7E001204EAA294923D
:06048A00001204E6A200CE
:010490002249
:10000300EC4D6011E8497017ED33EC3304600DE4F7
:10001300FCFFFEFD22E933E8330470F80201B3125A
:10002300017E58046009E4CC24815006285009025B
:1000330001BD2840030201BAC0E0EB4A7044B98015
:1000430006D0E0FB0201A9EF4E701CBD8008EBFF58
:10005300EAFEE9FD80EBE98DF0A4FEE5F00200EC99
:10006300E9CDF9EAFEEBFFEF89F0A4FCE5F0CE89D8
:10007300F0A42EFFE435F0CD89F0A42DFEE435F095
:100083008067EF4E7005BD80D780C3EF8BF0A4ACC3
:10009300F0EE8BF0A42CFCE435F0F8EF8AF0A42CFE
:1000A300E5F038FCE433CB8DF0A42CFCE5F03BF811
:1000B300EE8AF0A42CFCE5F038F8E433CF89F0A401
:1000C3002CFCE5F038CF3400CE89F0A42FFFE5F007
:1000D3003EFEE433C98DF0A42EFEE5F039CD8AF05F
:1000E300A42FFFE5F03EFEE43DFD33D0E0FB5007D7
:1000F3000BBB000F0201BDEC2CFCEF33FFEE33FE14
:06010300ED33FD02019541
:1001090075F020800E75F010800575F0087D007E71
:10011900007F003392D530D5031201FEEC33401035
:10012900EF33FFEE33FEED33FDEC33FCD5F0ED227A
:0E013900E5F0247EA2D513CC92E7CDCEFF22B6
:10014700EDD2E7CD33EC3392D524814006E4FFFEB0
:10015700FDFC22FCE4CFCECDCC24E0501174FF800F
:10016700EDC3CC13CCCD13CDCE13CECF13CF0470AC
:07017700F030D5DE0201FEAD
:10017E00E9D2E7C933E833F892D5EDD2E7CD33ECC7
:07018E0033FC5002B2D52240
:10019500EC30E7100FBF000C0EBE00080DBD0004CB
:1001A5000BEB6014A2D5EB13FCED92E7FD2274FF77
:1001B500FCFDFEFF22E480F8A2D574FF13FC7D80D0
:0301C500E480EFE4
:10026D0002054DE493A3F8E493A34003F68001F255
:10027D0008DFF48029E493A3F85407240CC8C33392
:10028D00C4540F4420C8834004F456800146F6DF61
:10029D00E4800B0102040810204080900558E47E94
:1002AD00019360BCA3FF543F30E509541FFEE49356
:1002BD00A360010ECF54C025E060A840B8E493A31D
:1002CD00FAE493A3F8E493A3C8C582C8CAC583CA48
:1002DD00F0A3C8C582C8CAC583CADFE9DEE780BE00
:010562000098
:1001C800C2D5EC30E709B2D5E4C39DFDE49CFCEE52
:1001D80030E715B2D5E4C39FFFE49EFE12020CC3BC
:1001E800E49DFDE49CFC800312020C30D507C3E4B7
:0601F8009FFFE49EFE22C1
:0E01FE00C3E49FFFE49EFEE49DFDE49CFC2212
:10020C00BC000BBE0029EF8DF084FFADF022E4CCD6
:10021C00F875F008EF2FFFEE33FEEC33FCEE9DEC9F
:10022C00984005FCEE9DFE0FD5F0E9E4CEFD22EDE5
:10023C00F8F5F0EE8420D21CFEADF075F008EF2F2F
:10024C00FFED33FD4007985006D5F0F222C398FD20
:05025C000FD5F0EA22BD
:00000001FF
