:03000000020026D5
:0C002600787FE4F6D8FD75810C02006DB7
:1000EF005468652053797374656D20697320527558
:1000FF006E6E696E672E2E2E0D0A0057656C636F3C
:10010F006D6520746F20584D462053797374656D5B
:04011F00210D0A00A4
:03001E00010C00D2
:0B018500EF1FAC0670011E4C70F6224C
:0E017700EFC43354E0FFE5A0541F4FF5A02263
:0601AF001201778D802291
:0701A100E4FD7F050201AF40
:0701A8007DFF7F040201AF9F
:0601B5001201A10201A8E5
:10016100758920758DFD758BFDD28E759850E4F5DE
:060171008ED2ACD2AF22D9
:0300230002019047
:09019000309805C29885990C32E3
:080199008F993099FDC29922F3
:100123008B088A09890AAB08AA09A90A120148603F
:1001330013050AE50A7002050914F9120148FF12B2
:05014300019980E22299
:1000B200E50C603854F02450601424F060222420AF
:1000C200702AE50C540FF4FFE58054F0800DE50C26
:1000D200540FC454F0F4FFE580540F4FF5808009AB
:0D00E2007BFF7A0079EF120123E4F50C2278
:100003001201B57F607EEA1201851201617BFF7ADE
:0B00130001790A1201231200B280FBE9
:10003200020003E493A3F8E493A34003F68001F2E1
:1000420008DFF48029E493A3F85407240CC8C333CF
:10005200C4540F4420C8834004F456800146F6DF9E
:10006200E4800B010204081020408090001EE47E10
:10007200019360BCA3FF543F30E509541FFEE49393
:10008200A360010ECF54C025E060A840B8E493A35A
:10009200FAE493A3F8E493A3C8C582C8CAC583CA85
:1000A200F0A3C8C582C8CAC583CADFE9DEE780BE3D
:0100210000DE
:10014800BB010689828A83E0225002E722BBFE02B5
:09015800E32289828A83E49322E8
:00000001FF
