:03000000020003F8
:0C000300787FE4F6D8FD75810802004A01
:03013B00010800B8
:040111007F647E0089
:0B011500EF1FAC0670011E4C70F622BC
:0E012000EFC43354E0FFE5A0541F4FF5A022BA
:060135001201208D802262
:1000D000EF24FE600504701D8016EDC394095015D1
:1000E000ED14FF7401A807088002C333D8FCF4FDA7
:0500F0007F0412013540
:0100F50022E8
:07012E00E4FD7F050201352D
:10008F0020B00D12011120B007C28030B0FDD28018
:10009F0020B10D12011120B107C28130B1FDD28103
:1000AF0020B20D12011120B207C28230B2FDD282EE
:1000BF0020B30D12011120B307C28330B3FDD283D9
:0100CF00220E
:1000F60012012E7F607EEA1201157DFF7F0112003C
:0B010600D07F0412012012008F80FB4C
:10000F000200F6E493A3F8E493A34003F68001F211
:10001F0008DFF48029E493A3F85407240CC8C333F2
:10002F00C4540F4420C8834004F456800146F6DFC1
:10003F00E4800B010204081020408090013BE47E15
:10004F00019360BCA3FF543F30E509541FFEE493B6
:10005F00A360010ECF54C025E060A840B8E493A37D
:10006F00FAE493A3F8E493A3C8C582C8CAC583CAA8
:10007F00F0A3C8C582C8CAC583CADFE9DEE780BE60
:01013E0000C0
:00000001FF
