:03000000020026D5
:0C002600787FE4F6D8FD75811F02006DA4
:10024900120EC0F9A4B0999282F880908883C6A151
:10025900868EBFFF010CFF010900010B00010A0096
:03026900010D0084
:08000E00FD12031F7F507EC3A9
:0B001600EF1FAC0670011E4C70F622BC
:0E02FA00EFC43354E0FFE5A0541F4FF5A022DF
:06031F001202FA8D80229B
:07031100E4FD7F0502031F5C
:070318007DFF7F0402031FBB
:060325001203110203188F
:10022400E4FD7F041202FAEDC3940850147401A88B
:1002340005088002C333D8FCF4F5801200120D8047
:04024400E67580FFDC
:010248002293
:10029000E4FB7401A803088002C333D8FC7F061274
:0F02A000000EE47F0712000E0BBB08E67580FF0F
:0102AF00222C
:06032B0012022402029000
:1002E7005389F0438901758C3C758AAFD2A9D2AF87
:0302F700D28C2284
:03000B00020122CD
:10012200C0E0C0F0C083C082C0D075D000C000C0A3
:0D01320001C002C003C004C005C006C00724
:10013F00758C3C758AAF0508E508C3942840077590
:09014F0008000509050912026D02
:10015800D007D006D005D004D003D002D001D000FB
:0B016800D0D0D082D083D0F0D0E032A5
:10026D00E509C3943C4005E4F509050BE50BC39482
:10027D003C4005E4F50B050AE50AC394634003E42D
:03028D00F50A224D
:0601F90075F00A84ADF070
:1001FF00AE057401A807088002C333D8FCFD7F0643
:10020F0012031F740E2EF8E6FD7F0712031F7F6483
:05021F007E0002001644
:10017300E50A75F00A84FDE4FF1201FFE50A7F0139
:100183001201F97D107F021201FFE50B75F00A845D
:10019300FD7F031201FFE50B7F041201F97D107F40
:1001A300051201FFE50975F00A84FD7F061201FFC0
:0D01B300E50975F00A84ADF07F070201FF39
:1001C00020B2197F647E0012001620B2051201735E
:1001D00080F8630C40AD0C7F0412031F20B3197F1D
:1001E000647E0012001620B30512017380F8630CC0
:0901F00080AD0C7F0412031F22F4
:1002CE0053890F438920758DFD758BFDD28E7598E0
:0902DE0050E4F58ED2ACD2AF223F
:03002300020308CD
:09030800309805C29885990D3268
:080003008F993099FDC299228A
:1000B200E50D606B54F02450601924107061E50D59
:1000C200540FF4FFE50C54F04FF50CFD7F041203BE
:1000D2001F8049E50975F00A84C454F0FFE50975EB
:1000E200F00A84E5F02FFEE50B75F00A84C454F0A3
:1000F200FFE50B75F00A84E5F02FFDE50A75F00ABD
:1001020084C454F0FFE50A75F00A84E5F02FFF126B
:0F0112000003AF05120003AF06120003E4F50D62
:0101210022BB
:1002B0001203257F647E0012001612032B1202E740
:0E02C0001202CE1201731201C01200B280F5BC
:100032000202B0E493A3F8E493A34003F68001F232
:1000420008DFF48029E493A3F85407240CC8C333CF
:10005200C4540F4420C8834004F456800146F6DF9E
:10006200E4800B0102040810204080900249E47EE3
:10007200019360BCA3FF543F30E509541FFEE49393
:10008200A360010ECF54C025E060A840B8E493A35A
:10009200FAE493A3F8E493A3C8C582C8CAC583CA85
:1000A200F0A3C8C582C8CAC583CADFE9DEE780BE3D
:01026C000091
:00000001FF
