:03000000020003F8
:0C000300787FE4F6D8FD75812C02004ADD
:100356000110FF1211C0F9A4B0999282F88090881A
:0703660083C6A1868EBFFFD4
:0A038600FD7F071203C27FF47E0121
:0B039000EF1FAC0670011E4C70F6223F
:1003C200EFC43354E0FFE5A0541F4FF5A08D802207
:0602750075F00A84ADF0F3
:10027B00AE057401A807088002C333D8FCFD7F06C6
:10028B001203C274112EF8E61203867DFF7F07025C
:02029B0003C29C
:10029D00AE057401A807088002C333D8FCFD7F06A4
:1002AD001203C274112EF8E624801203867DFF7F9F
:0402BD00070203C26F
:1002C1008F298D2A1203D27FA01202491203B0AFE7
:1002D100291202491203B0AF2A1202491203B002D5
:0202E10003E137
:020219008F2B29
:10021B001203D27FA01202491203B0AF2B12024974
:10022B001203B01203D27FA11202491203B01203C0
:0D023B00038F2C7F0112036E1203E1AF2C24
:010248002293
:08019C008F238B248A2589269C
:1001A4001203D27FA01202491203B0AF23120249F4
:1001B4001203B0E4F528E528C39527501AAB24AA06
:1001C40025A926852882758300120100FF120249A1
:0A01D4001203B0052880DF0203E1EA
:08008F008F238B248A258926AA
:100097001203D27FA01202491203B0AF2312024902
:1000A7001203B01203D27FA11202491203B0E4F582
:1000B70028E52714FFE528C39F501C120303AB2430
:1000C700AA25A926852882758300EF12012DE4FF52
:1000D70012036E052880DA120303E5277C0024FF4C
:1000E700F582EC34FFF583AB24AA25A926EF12018C
:0900F7002D7F0112036E0203E1EA
:1001DE000508050905097405250AF50AE508C394FD
:1001EE00644003E4F508E509C394644003E4F509AB
:1001FE00E50AC394644003E4F50A7B007A007908AB
:0B020E007527037F0112019C02014FC5
:10039B0020B31112038C20B30B1201DE20B3051214
:0503AB00014F80F82263
:10014F00E50875F00A84FDE4FF12027BE5087F01E4
:10015F001202757D107F0212027BE50975F00A8489
:10016F00FD7F0312027BE5097F041202757D107F6C
:10017F000512027BE50A75F00A84FD7F0612027BE9
:0D018F00E50A75F00A84ADF07F0702027BDF
:10032000E4FDFF1203C27F051203C27DFF7F0412AA
:0C03300003C27F061203C27F070203C253
:1002E3001203207B007A0079087527037F0112002F
:1002F3008F7F647E0012039012039B12014F80F8DC
:04033C00D2A07F0AC2
:10034000000000000000000000000000000000AEFF
:06035000071FEE70EB2216
:0F03D200D2A112033CC2A17F0A120340C2A02293
:0C03E100C2A112033CD2A17F0A0203401B
:02024900AD07FF
:10024B00E4FCC2A07F0A120340ED30E704D2A18088
:10025B0002C2A17F0A120340D2A0ED25E0FD7F0A66
:09026B001203400CBC08DBC2A028
:010274002267
:10030300E4FC12033CED25E0FD30A103430501C2EB
:0C031300A07F0A1203400CBC08E8AF05F4
:01031F0022BB
:1003B00012033CA2A1E433FDC2A07F0A120340AFA6
:0103C0000537
:0103C1002219
:10036E00C2A0EF24FF92A17F0A12034012033CC2E7
:08037E00A0D2A17F0A02034096
:10000F000202E3E493A3F8E493A34003F68001F222
:10001F0008DFF48029E493A3F85407240CC8C333F2
:10002F00C4540F4420C8834004F456800146F6DFC1
:10003F00E4800B0102040810204080900356E47EF8
:10004F00019360BCA3FF543F30E509541FFEE493B6
:10005F00A360010ECF54C025E060A840B8E493A37D
:10006F00FAE493A3F8E493A3C8C582C8CAC583CAA8
:10007F00F0A3C8C582C8CAC583CADFE9DEE780BE60
:01036D00008F
:10010000BB010CE58229F582E5833AF583E02250B4
:1001100006E92582F8E622BBFE06E92582F8E222FE
:0D012000E58229F582E5833AF583E4932218
:10012D00F8BB010DE58229F582E5833AF583E8F008
:10013D00225006E92582C8F622BBFE05E92582C8B4
:02014D00F2229C
:00000001FF
