:03000000020003F8
:0C000300787FE4F6D8FD75811D02004AEC
:10018C000108FF120AC0F9A4B0999282F8809088F5
:0A019C0083C6A1868EBFFF01090093
:0A020C00FD7F071202457FF47E011A
:0B021600EF1FAC0670011E4C70F622BA
:10024500EFC43354E0FFE5A0541F4FF5A08D802285
:10010F00AE057401A807088002C333D8FCFD7F0633
:10011F00120245740A2EF8E612020C7DFF7F0702C9
:02012F00024587
:1000EB00AE057401A807088002C333D8FCFD7F0658
:1000FB00120245740A2EF8E6248012020C7DFF7F53
:04010B0007020245A0
:100131008F1C8D1D1202557FA01200BF120233AF1A
:100141001C1200BF120233AF1D1200BF1202330294
:02015100026446
:02008F008F1CC4
:100091001202557FA01200BF120233AF1C1200BF23
:1000A1001202331202557FA11200BF120233120154
:0D00B100538F1D7F011201F4120264AF1D78
:0100BE00221F
:1001A700E4FF12008F8F090509E509D39463400323
:0A01B700750901AD09E4FF020131F2
:1001DB00E50975F00A84FD7F0612010FE50975F03C
:0901EB000A84ADF07F0702010F48
:10017000E4FDFF1202457F051202457DFF7F041258
:0C01800002457F061202457F070202457F
:100221001201701201A77F647E001202161201DB17
:0202310080FB50
:0401C100D2A07F0A3F
:1001C500000000000000000000000000000000AE7C
:0601D500071FEE70EB2293
:0F025500D2A11201C1C2A17F0A1201C5C2A0220B
:0C026400C2A11201C1D2A17F0A0201C593
:0200BF00AD078B
:1000C100E4FCC2A07F0A1201C5ED30E704D2A18091
:1000D10002C2A17F0A1201C5D2A0ED25E0FD7F0A6F
:0900E1001201C50CBC08DBC2A031
:0100EA0022F3
:10015300E4FC1201C1ED25E0FD30A103430501C21A
:0C016300A07F0A1201C50CBC08E8AF0523
:01016F00226D
:100233001201C1A2A1E433FDC2A07F0A1201C5AF1E
:0102430005B5
:010244002297
:1001F400C2A0EF24FF92A17F0A1201C51201C1C25D
:08020400A0D2A17F0A0201C58E
:10000F00020221E493A3F8E493A34003F68001F2E4
:10001F0008DFF48029E493A3F85407240CC8C333F2
:10002F00C4540F4420C8834004F456800146F6DFC1
:10003F00E4800B010204081020408090018CE47EC4
:10004F00019360BCA3FF543F30E509541FFEE493B6
:10005F00A360010ECF54C025E060A840B8E493A37D
:10006F00FAE493A3F8E493A3C8C582C8CAC583CAA8
:10007F00F0A3C8C582C8CAC583CADFE9DEE780BE60
:0101A6000058
:00000001FF
